{
  "_format": "hh-sol-artifact-1",
  "contractName": "Treasury",
  "sourceName": "contracts/Treasury.sol",
  "abi": [
    {
      "inputs": [
        {
          "internalType": "address",
          "name": "_payee",
          "type": "address"
        }
      ],
      "stateMutability": "payable",
      "type": "constructor"
    },
    {
      "anonymous": false,
      "inputs": [
        {
          "indexed": true,
          "internalType": "address",
          "name": "previousOwner",
          "type": "address"
        },
        {
          "indexed": true,
          "internalType": "address",
          "name": "newOwner",
          "type": "address"
        }
      ],
      "name": "OwnershipTransferred",
      "type": "event"
    },
    {
      "inputs": [],
      "name": "isReleased",
      "outputs": [
        {
          "internalType": "bool",
          "name": "",
          "type": "bool"
        }
      ],
      "stateMutability": "view",
      "type": "function"
    },
    {
      "inputs": [],
      "name": "owner",
      "outputs": [
        {
          "internalType": "address",
          "name": "",
          "type": "address"
        }
      ],
      "stateMutability": "view",
      "type": "function"
    },
    {
      "inputs": [],
      "name": "payee",
      "outputs": [
        {
          "internalType": "address",
          "name": "",
          "type": "address"
        }
      ],
      "stateMutability": "view",
      "type": "function"
    },
    {
      "inputs": [],
      "name": "releaseFunds",
      "outputs": [],
      "stateMutability": "nonpayable",
      "type": "function"
    },
    {
      "inputs": [],
      "name": "renounceOwnership",
      "outputs": [],
      "stateMutability": "nonpayable",
      "type": "function"
    },
    {
      "inputs": [],
      "name": "totalFunds",
      "outputs": [
        {
          "internalType": "uint256",
          "name": "",
          "type": "uint256"
        }
      ],
      "stateMutability": "view",
      "type": "function"
    },
    {
      "inputs": [
        {
          "internalType": "address",
          "name": "newOwner",
          "type": "address"
        }
      ],
      "name": "transferOwnership",
      "outputs": [],
      "stateMutability": "nonpayable",
      "type": "function"
    }
  ],
  "bytecode": "0x60806040526040516103f93803806103f9833981016040819052610022916100a3565b61002b33610053565b34600155600280546001600160a81b0319166001600160a01b039092169190911790556100d3565b600080546001600160a01b038381166001600160a01b0319831681178455604051919092169283917f8be0079c531659141344cd1fd0a4f28419497f9722a3daafe3b4186f6b6457e09190a35050565b6000602082840312156100b557600080fd5b81516001600160a01b03811681146100cc57600080fd5b9392505050565b610317806100e26000396000f3fe608060405234801561001057600080fd5b506004361061007d5760003560e01c8063968ed6001161005b578063968ed600146100be578063ae90b213146100d5578063f2fde38b146100e8578063fa2a8997146100fb57600080fd5b806369d8957514610082578063715018a61461008c5780638da5cb5b14610094575b600080fd5b61008a61011f565b005b61008a610178565b6000546001600160a01b03165b6040516001600160a01b0390911681526020015b60405180910390f35b6100c760015481565b6040519081526020016100b5565b6002546100a1906001600160a01b031681565b61008a6100f63660046102b1565b61018c565b60025461010f90600160a01b900460ff1681565b60405190151581526020016100b5565b610127610207565b6002805460ff60a01b198116600160a01b179091556001546040516001600160a01b039092169181156108fc0291906000818181858888f19350505050158015610175573d6000803e3d6000fd5b50565b610180610207565b61018a6000610261565b565b610194610207565b6001600160a01b0381166101fe5760405162461bcd60e51b815260206004820152602660248201527f4f776e61626c653a206e6577206f776e657220697320746865207a65726f206160448201526564647265737360d01b60648201526084015b60405180910390fd5b61017581610261565b6000546001600160a01b0316331461018a5760405162461bcd60e51b815260206004820181905260248201527f4f776e61626c653a2063616c6c6572206973206e6f7420746865206f776e657260448201526064016101f5565b600080546001600160a01b038381166001600160a01b0319831681178455604051919092169283917f8be0079c531659141344cd1fd0a4f28419497f9722a3daafe3b4186f6b6457e09190a35050565b6000602082840312156102c357600080fd5b81356001600160a01b03811681146102da57600080fd5b939250505056fea26469706673582212208f7e8bc53f416fc7cfaff0773f7db0e19814916c36051046ea0884683a20931364736f6c63430008090033",
  "linkReferences": {},
  "deployedLinkReferences": {}
}